{
  "contractName": "UNIQ_Application",
  "abi": [
    {
      "inputs": [],
      "stateMutability": "nonpayable",
      "type": "constructor"
    },
    {
      "anonymous": false,
      "inputs": [
        {
          "indexed": true,
          "internalType": "address",
          "name": "owner",
          "type": "address"
        },
        {
          "indexed": true,
          "internalType": "address",
          "name": "approved",
          "type": "address"
        },
        {
          "indexed": true,
          "internalType": "uint256",
          "name": "tokenId",
          "type": "uint256"
        }
      ],
      "name": "Approval",
      "type": "event"
    },
    {
      "anonymous": false,
      "inputs": [
        {
          "indexed": true,
          "internalType": "address",
          "name": "owner",
          "type": "address"
        },
        {
          "indexed": true,
          "internalType": "address",
          "name": "operator",
          "type": "address"
        },
        {
          "indexed": false,
          "internalType": "bool",
          "name": "approved",
          "type": "bool"
        }
      ],
      "name": "ApprovalForAll",
      "type": "event"
    },
    {
      "anonymous": false,
      "inputs": [
        {
          "indexed": true,
          "internalType": "uint256",
          "name": "tokenId",
          "type": "uint256"
        },
        {
          "indexed": false,
          "internalType": "address",
          "name": "seller",
          "type": "address"
        },
        {
          "indexed": false,
          "internalType": "address",
          "name": "owner",
          "type": "address"
        },
        {
          "indexed": false,
          "internalType": "uint256",
          "name": "price",
          "type": "uint256"
        },
        {
          "indexed": false,
          "internalType": "bool",
          "name": "sold",
          "type": "bool"
        }
      ],
      "name": "MarketItemCreated",
      "type": "event"
    },
    {
      "anonymous": false,
      "inputs": [
        {
          "indexed": true,
          "internalType": "address",
          "name": "from",
          "type": "address"
        },
        {
          "indexed": true,
          "internalType": "address",
          "name": "to",
          "type": "address"
        },
        {
          "indexed": true,
          "internalType": "uint256",
          "name": "tokenId",
          "type": "uint256"
        }
      ],
      "name": "Transfer",
      "type": "event"
    },
    {
      "inputs": [
        {
          "internalType": "address",
          "name": "to",
          "type": "address"
        },
        {
          "internalType": "uint256",
          "name": "tokenId",
          "type": "uint256"
        }
      ],
      "name": "approve",
      "outputs": [],
      "stateMutability": "nonpayable",
      "type": "function"
    },
    {
      "inputs": [
        {
          "internalType": "address",
          "name": "owner",
          "type": "address"
        }
      ],
      "name": "balanceOf",
      "outputs": [
        {
          "internalType": "uint256",
          "name": "",
          "type": "uint256"
        }
      ],
      "stateMutability": "view",
      "type": "function",
      "constant": true
    },
    {
      "inputs": [
        {
          "internalType": "uint256",
          "name": "tokenId",
          "type": "uint256"
        }
      ],
      "name": "getApproved",
      "outputs": [
        {
          "internalType": "address",
          "name": "",
          "type": "address"
        }
      ],
      "stateMutability": "view",
      "type": "function",
      "constant": true
    },
    {
      "inputs": [
        {
          "internalType": "address",
          "name": "owner",
          "type": "address"
        },
        {
          "internalType": "address",
          "name": "operator",
          "type": "address"
        }
      ],
      "name": "isApprovedForAll",
      "outputs": [
        {
          "internalType": "bool",
          "name": "",
          "type": "bool"
        }
      ],
      "stateMutability": "view",
      "type": "function",
      "constant": true
    },
    {
      "inputs": [],
      "name": "name",
      "outputs": [
        {
          "internalType": "string",
          "name": "",
          "type": "string"
        }
      ],
      "stateMutability": "view",
      "type": "function",
      "constant": true
    },
    {
      "inputs": [
        {
          "internalType": "uint256",
          "name": "tokenId",
          "type": "uint256"
        }
      ],
      "name": "ownerOf",
      "outputs": [
        {
          "internalType": "address",
          "name": "",
          "type": "address"
        }
      ],
      "stateMutability": "view",
      "type": "function",
      "constant": true
    },
    {
      "inputs": [
        {
          "internalType": "address",
          "name": "from",
          "type": "address"
        },
        {
          "internalType": "address",
          "name": "to",
          "type": "address"
        },
        {
          "internalType": "uint256",
          "name": "tokenId",
          "type": "uint256"
        }
      ],
      "name": "safeTransferFrom",
      "outputs": [],
      "stateMutability": "nonpayable",
      "type": "function"
    },
    {
      "inputs": [
        {
          "internalType": "address",
          "name": "from",
          "type": "address"
        },
        {
          "internalType": "address",
          "name": "to",
          "type": "address"
        },
        {
          "internalType": "uint256",
          "name": "tokenId",
          "type": "uint256"
        },
        {
          "internalType": "bytes",
          "name": "_data",
          "type": "bytes"
        }
      ],
      "name": "safeTransferFrom",
      "outputs": [],
      "stateMutability": "nonpayable",
      "type": "function"
    },
    {
      "inputs": [
        {
          "internalType": "address",
          "name": "operator",
          "type": "address"
        },
        {
          "internalType": "bool",
          "name": "approved",
          "type": "bool"
        }
      ],
      "name": "setApprovalForAll",
      "outputs": [],
      "stateMutability": "nonpayable",
      "type": "function"
    },
    {
      "inputs": [
        {
          "internalType": "bytes4",
          "name": "interfaceId",
          "type": "bytes4"
        }
      ],
      "name": "supportsInterface",
      "outputs": [
        {
          "internalType": "bool",
          "name": "",
          "type": "bool"
        }
      ],
      "stateMutability": "view",
      "type": "function",
      "constant": true
    },
    {
      "inputs": [],
      "name": "symbol",
      "outputs": [
        {
          "internalType": "string",
          "name": "",
          "type": "string"
        }
      ],
      "stateMutability": "view",
      "type": "function",
      "constant": true
    },
    {
      "inputs": [
        {
          "internalType": "uint256",
          "name": "tokenId",
          "type": "uint256"
        }
      ],
      "name": "tokenURI",
      "outputs": [
        {
          "internalType": "string",
          "name": "",
          "type": "string"
        }
      ],
      "stateMutability": "view",
      "type": "function",
      "constant": true
    },
    {
      "inputs": [
        {
          "internalType": "address",
          "name": "from",
          "type": "address"
        },
        {
          "internalType": "address",
          "name": "to",
          "type": "address"
        },
        {
          "internalType": "uint256",
          "name": "tokenId",
          "type": "uint256"
        }
      ],
      "name": "transferFrom",
      "outputs": [],
      "stateMutability": "nonpayable",
      "type": "function"
    },
    {
      "inputs": [],
      "name": "getListingPrice",
      "outputs": [
        {
          "internalType": "uint256",
          "name": "",
          "type": "uint256"
        }
      ],
      "stateMutability": "view",
      "type": "function",
      "constant": true
    },
    {
      "inputs": [
        {
          "internalType": "string",
          "name": "tokenURI",
          "type": "string"
        },
        {
          "internalType": "uint256",
          "name": "price",
          "type": "uint256"
        }
      ],
      "name": "createToken",
      "outputs": [
        {
          "internalType": "uint256",
          "name": "",
          "type": "uint256"
        }
      ],
      "stateMutability": "payable",
      "type": "function",
      "payable": true
    },
    {
      "inputs": [
        {
          "internalType": "uint256",
          "name": "tokenId",
          "type": "uint256"
        },
        {
          "internalType": "uint256",
          "name": "price",
          "type": "uint256"
        }
      ],
      "name": "resellToken",
      "outputs": [],
      "stateMutability": "payable",
      "type": "function",
      "payable": true
    },
    {
      "inputs": [
        {
          "internalType": "uint256",
          "name": "tokenId",
          "type": "uint256"
        }
      ],
      "name": "createMarketSale",
      "outputs": [],
      "stateMutability": "payable",
      "type": "function",
      "payable": true
    },
    {
      "inputs": [],
      "name": "fetchMarketItems",
      "outputs": [
        {
          "components": [
            {
              "internalType": "uint256",
              "name": "tokenId",
              "type": "uint256"
            },
            {
              "internalType": "address payable",
              "name": "seller",
              "type": "address"
            },
            {
              "internalType": "address payable",
              "name": "owner",
              "type": "address"
            },
            {
              "internalType": "uint256",
              "name": "price",
              "type": "uint256"
            },
            {
              "internalType": "bool",
              "name": "sold",
              "type": "bool"
            }
          ],
          "internalType": "struct UNIQ_Application.MarketItem[]",
          "name": "",
          "type": "tuple[]"
        }
      ],
      "stateMutability": "view",
      "type": "function",
      "constant": true
    },
    {
      "inputs": [],
      "name": "fetchMyNFTs",
      "outputs": [
        {
          "components": [
            {
              "internalType": "uint256",
              "name": "tokenId",
              "type": "uint256"
            },
            {
              "internalType": "address payable",
              "name": "seller",
              "type": "address"
            },
            {
              "internalType": "address payable",
              "name": "owner",
              "type": "address"
            },
            {
              "internalType": "uint256",
              "name": "price",
              "type": "uint256"
            },
            {
              "internalType": "bool",
              "name": "sold",
              "type": "bool"
            }
          ],
          "internalType": "struct UNIQ_Application.MarketItem[]",
          "name": "",
          "type": "tuple[]"
        }
      ],
      "stateMutability": "view",
      "type": "function",
      "constant": true
    },
    {
      "inputs": [],
      "name": "fetchItemsListed",
      "outputs": [
        {
          "components": [
            {
              "internalType": "uint256",
              "name": "tokenId",
              "type": "uint256"
            },
            {
              "internalType": "address payable",
              "name": "seller",
              "type": "address"
            },
            {
              "internalType": "address payable",
              "name": "owner",
              "type": "address"
            },
            {
              "internalType": "uint256",
              "name": "price",
              "type": "uint256"
            },
            {
              "internalType": "bool",
              "name": "sold",
              "type": "bool"
            }
          ],
          "internalType": "struct UNIQ_Application.MarketItem[]",
          "name": "",
          "type": "tuple[]"
        }
      ],
      "stateMutability": "view",
      "type": "function",
      "constant": true
    }
  ],
  "bytecode": "0x60806040526658d15e176280006009553480156200001c57600080fd5b506040518060400160405280601081526020017f4d657461766572736520546f6b656e73000000000000000000000000000000008152506040518060400160405280600481526020017f4d455454000000000000000000000000000000000000000000000000000000008152508160009080519060200190620000a192919062000104565b508060019080519060200190620000ba92919062000104565b50505033600a60006101000a81548173ffffffffffffffffffffffffffffffffffffffff021916908373ffffffffffffffffffffffffffffffffffffffff16021790555062000219565b8280546200011290620001b4565b90600052602060002090601f01602090048101928262000136576000855562000182565b82601f106200015157805160ff191683800117855562000182565b8280016001018555821562000182579182015b828111156200018157825182559160200191906001019062000164565b5b50905062000191919062000195565b5090565b5b80821115620001b057600081600090555060010162000196565b5090565b60006002820490506001821680620001cd57607f821691505b60208210811415620001e457620001e3620001ea565b5b50919050565b7f4e487b7100000000000000000000000000000000000000000000000000000000600052602260045260246000fd5b61420f80620002296000396000f3fe60806040526004361061011f5760003560e01c80636352211e116100a0578063b88d4fde11610064578063b88d4fde146103ee578063be9af53614610417578063c87b56dd14610433578063e219fc7514610470578063e985e9c51461048c5761011f565b80636352211e146102f057806370a082311461032d57806372b3b6201461036a57806395d89b411461039a578063a22cb465146103c55761011f565b806312e85585116100e757806312e855851461021d578063202e37401461024857806323b872dd1461027357806342842e0e1461029c57806345f8fa80146102c55761011f565b806301ffc9a71461012457806306fdde0314610161578063081812fc1461018c578063095ea7b3146101c95780630f08efe0146101f2575b600080fd5b34801561013057600080fd5b5061014b60048036038101906101469190612de1565b6104c9565b6040516101589190613498565b60405180910390f35b34801561016d57600080fd5b506101766105ab565b60405161018391906134b3565b60405180910390f35b34801561019857600080fd5b506101b360048036038101906101ae9190612e87565b61063d565b6040516101c091906133ca565b60405180910390f35b3480156101d557600080fd5b506101f060048036038101906101eb9190612da5565b6106c2565b005b3480156101fe57600080fd5b506102076107da565b6040516102149190613476565b60405180910390f35b34801561022957600080fd5b50610232610a8f565b60405161023f9190613775565b60405180910390f35b34801561025457600080fd5b5061025d610a99565b60405161026a9190613476565b60405180910390f35b34801561027f57600080fd5b5061029a60048036038101906102959190612c9f565b610dd3565b005b3480156102a857600080fd5b506102c360048036038101906102be9190612c9f565b610e33565b005b3480156102d157600080fd5b506102da610e53565b6040516102e79190613476565b60405180910390f35b3480156102fc57600080fd5b5061031760048036038101906103129190612e87565b61118d565b60405161032491906133ca565b60405180910390f35b34801561033957600080fd5b50610354600480360381019061034f9190612c3a565b61123f565b6040516103619190613775565b60405180910390f35b610384600480360381019061037f9190612e33565b6112f7565b6040516103919190613775565b60405180910390f35b3480156103a657600080fd5b506103af611339565b6040516103bc91906134b3565b60405180910390f35b3480156103d157600080fd5b506103ec60048036038101906103e79190612d69565b6113cb565b005b3480156103fa57600080fd5b5061041560048036038101906104109190612cee565b6113e1565b005b610431600480360381019061042c9190612e87565b611443565b005b34801561043f57600080fd5b5061045a60048036038101906104559190612e87565b611681565b60405161046791906134b3565b60405180910390f35b61048a60048036038101906104859190612eb0565b6117d3565b005b34801561049857600080fd5b506104b360048036038101906104ae9190612c63565b6119c8565b6040516104c09190613498565b60405180910390f35b60007f80ac58cd000000000000000000000000000000000000000000000000000000007bffffffffffffffffffffffffffffffffffffffffffffffffffffffff1916827bffffffffffffffffffffffffffffffffffffffffffffffffffffffff1916148061059457507f5b5e139f000000000000000000000000000000000000000000000000000000007bffffffffffffffffffffffffffffffffffffffffffffffffffffffff1916827bffffffffffffffffffffffffffffffffffffffffffffffffffffffff1916145b806105a457506105a382611a5c565b5b9050919050565b6060600080546105ba90613a16565b80601f01602080910402602001604051908101604052809291908181526020018280546105e690613a16565b80156106335780601f1061060857610100808354040283529160200191610633565b820191906000526020600020905b81548152906001019060200180831161061657829003601f168201915b5050505050905090565b600061064882611ac6565b610687576040517f08c379a000000000000000000000000000000000000000000000000000000000815260040161067e906136b5565b60405180910390fd5b6004600083815260200190815260200160002060009054906101000a900473ffffffffffffffffffffffffffffffffffffffff169050919050565b60006106cd8261118d565b90508073ffffffffffffffffffffffffffffffffffffffff168373ffffffffffffffffffffffffffffffffffffffff16141561073e576040517f08c379a0000000000000000000000000000000000000000000000000000000008152600401610735906136f5565b60405180910390fd5b8073ffffffffffffffffffffffffffffffffffffffff1661075d611b32565b73ffffffffffffffffffffffffffffffffffffffff16148061078c575061078b81610786611b32565b6119c8565b5b6107cb576040517f08c379a00000000000000000000000000000000000000000000000000000000081526004016107c2906135b5565b60405180910390fd5b6107d58383611b3a565b505050565b606060006107e86007611bf3565b905060006107f66008611bf3565b6108006007611bf3565b61080a919061391a565b90506000808267ffffffffffffffff81111561084f577f4e487b7100000000000000000000000000000000000000000000000000000000600052604160045260246000fd5b60405190808252806020026020018201604052801561088857816020015b610875612a01565b81526020019060019003908161086d5790505b50905060005b84811015610a84573073ffffffffffffffffffffffffffffffffffffffff16600b60006001846108be9190613893565b815260200190815260200160002060020160009054906101000a900473ffffffffffffffffffffffffffffffffffffffff1673ffffffffffffffffffffffffffffffffffffffff161415610a7157600060018261091b9190613893565b90506000600b60008381526020019081526020016000209050806040518060a0016040529081600082015481526020016001820160009054906101000a900473ffffffffffffffffffffffffffffffffffffffff1673ffffffffffffffffffffffffffffffffffffffff1673ffffffffffffffffffffffffffffffffffffffff1681526020016002820160009054906101000a900473ffffffffffffffffffffffffffffffffffffffff1673ffffffffffffffffffffffffffffffffffffffff1673ffffffffffffffffffffffffffffffffffffffff168152602001600382015481526020016004820160009054906101000a900460ff161515151581525050848681518110610a54577f4e487b7100000000000000000000000000000000000000000000000000000000600052603260045260246000fd5b6020026020010181905250600185610a6c9190613893565b945050505b8080610a7c90613a79565b91505061088e565b508094505050505090565b6000600954905090565b60606000610aa76007611bf3565b905060008060005b83811015610b50573373ffffffffffffffffffffffffffffffffffffffff16600b6000600184610adf9190613893565b815260200190815260200160002060020160009054906101000a900473ffffffffffffffffffffffffffffffffffffffff1673ffffffffffffffffffffffffffffffffffffffff161415610b3d57600183610b3a9190613893565b92505b8080610b4890613a79565b915050610aaf565b5060008267ffffffffffffffff811115610b93577f4e487b7100000000000000000000000000000000000000000000000000000000600052604160045260246000fd5b604051908082528060200260200182016040528015610bcc57816020015b610bb9612a01565b815260200190600190039081610bb15790505b50905060005b84811015610dc8573373ffffffffffffffffffffffffffffffffffffffff16600b6000600184610c029190613893565b815260200190815260200160002060020160009054906101000a900473ffffffffffffffffffffffffffffffffffffffff1673ffffffffffffffffffffffffffffffffffffffff161415610db5576000600182610c5f9190613893565b90506000600b60008381526020019081526020016000209050806040518060a0016040529081600082015481526020016001820160009054906101000a900473ffffffffffffffffffffffffffffffffffffffff1673ffffffffffffffffffffffffffffffffffffffff1673ffffffffffffffffffffffffffffffffffffffff1681526020016002820160009054906101000a900473ffffffffffffffffffffffffffffffffffffffff1673ffffffffffffffffffffffffffffffffffffffff1673ffffffffffffffffffffffffffffffffffffffff168152602001600382015481526020016004820160009054906101000a900460ff161515151581525050848681518110610d98577f4e487b7100000000000000000000000000000000000000000000000000000000600052603260045260246000fd5b6020026020010181905250600185610db09190613893565b945050505b8080610dc090613a79565b915050610bd2565b508094505050505090565b610de4610dde611b32565b82611c01565b610e23576040517f08c379a0000000000000000000000000000000000000000000000000000000008152600401610e1a90613735565b60405180910390fd5b610e2e838383611cdf565b505050565b610e4e838383604051806020016040528060008152506113e1565b505050565b60606000610e616007611bf3565b905060008060005b83811015610f0a573373ffffffffffffffffffffffffffffffffffffffff16600b6000600184610e999190613893565b815260200190815260200160002060010160009054906101000a900473ffffffffffffffffffffffffffffffffffffffff1673ffffffffffffffffffffffffffffffffffffffff161415610ef757600183610ef49190613893565b92505b8080610f0290613a79565b915050610e69565b5060008267ffffffffffffffff811115610f4d577f4e487b7100000000000000000000000000000000000000000000000000000000600052604160045260246000fd5b604051908082528060200260200182016040528015610f8657816020015b610f73612a01565b815260200190600190039081610f6b5790505b50905060005b84811015611182573373ffffffffffffffffffffffffffffffffffffffff16600b6000600184610fbc9190613893565b815260200190815260200160002060010160009054906101000a900473ffffffffffffffffffffffffffffffffffffffff1673ffffffffffffffffffffffffffffffffffffffff16141561116f5760006001826110199190613893565b90506000600b60008381526020019081526020016000209050806040518060a0016040529081600082015481526020016001820160009054906101000a900473ffffffffffffffffffffffffffffffffffffffff1673ffffffffffffffffffffffffffffffffffffffff1673ffffffffffffffffffffffffffffffffffffffff1681526020016002820160009054906101000a900473ffffffffffffffffffffffffffffffffffffffff1673ffffffffffffffffffffffffffffffffffffffff1673ffffffffffffffffffffffffffffffffffffffff168152602001600382015481526020016004820160009054906101000a900460ff161515151581525050848681518110611152577f4e487b7100000000000000000000000000000000000000000000000000000000600052603260045260246000fd5b602002602001018190525060018561116a9190613893565b945050505b808061117a90613a79565b915050610f8c565b508094505050505090565b6000806002600084815260200190815260200160002060009054906101000a900473ffffffffffffffffffffffffffffffffffffffff169050600073ffffffffffffffffffffffffffffffffffffffff168173ffffffffffffffffffffffffffffffffffffffff161415611236576040517f08c379a000000000000000000000000000000000000000000000000000000000815260040161122d906135f5565b60405180910390fd5b80915050919050565b60008073ffffffffffffffffffffffffffffffffffffffff168273ffffffffffffffffffffffffffffffffffffffff1614156112b0576040517f08c379a00000000000000000000000000000000000000000000000000000000081526004016112a7906135d5565b60405180910390fd5b600360008373ffffffffffffffffffffffffffffffffffffffff1673ffffffffffffffffffffffffffffffffffffffff168152602001908152602001600020549050919050565b60006113036007611f46565b600061130f6007611bf3565b905061131b3382611f5c565b6113258185612136565b61132f81846121aa565b8091505092915050565b60606001805461134890613a16565b80601f016020809104026020016040519081016040528092919081815260200182805461137490613a16565b80156113c15780601f10611396576101008083540402835291602001916113c1565b820191906000526020600020905b8154815290600101906020018083116113a457829003601f168201915b5050505050905090565b6113dd6113d6611b32565b83836123ad565b5050565b6113f26113ec611b32565b83611c01565b611431576040517f08c379a000000000000000000000000000000000000000000000000000000000815260040161142890613735565b60405180910390fd5b61143d8484848461251a565b50505050565b6000600b60008381526020019081526020016000206003015490506000600b600084815260200190815260200160002060010160009054906101000a900473ffffffffffffffffffffffffffffffffffffffff1690508134146114db576040517f08c379a00000000000000000000000000000000000000000000000000000000081526004016114d290613635565b60405180910390fd5b33600b600085815260200190815260200160002060020160006101000a81548173ffffffffffffffffffffffffffffffffffffffff021916908373ffffffffffffffffffffffffffffffffffffffff1602179055506001600b600085815260200190815260200160002060040160006101000a81548160ff0219169083151502179055506000600b600085815260200190815260200160002060010160006101000a81548173ffffffffffffffffffffffffffffffffffffffff021916908373ffffffffffffffffffffffffffffffffffffffff1602179055506115bf6008611f46565b6115ca303385611cdf565b600a60009054906101000a900473ffffffffffffffffffffffffffffffffffffffff1673ffffffffffffffffffffffffffffffffffffffff166108fc6009549081150290604051600060405180830381858888f19350505050158015611634573d6000803e3d6000fd5b508073ffffffffffffffffffffffffffffffffffffffff166108fc349081150290604051600060405180830381858888f1935050505015801561167b573d6000803e3d6000fd5b50505050565b606061168c82611ac6565b6116cb576040517f08c379a00000000000000000000000000000000000000000000000000000000081526004016116c290613675565b60405180910390fd5b60006006600084815260200190815260200160002080546116eb90613a16565b80601f016020809104026020016040519081016040528092919081815260200182805461171790613a16565b80156117645780601f1061173957610100808354040283529160200191611764565b820191906000526020600020905b81548152906001019060200180831161174757829003601f168201915b505050505090506000611775612576565b905060008151141561178b5781925050506117ce565b6000825111156117c05780826040516020016117a89291906133a6565b604051602081830303815290604052925050506117ce565b6117c98461258d565b925050505b919050565b3373ffffffffffffffffffffffffffffffffffffffff16600b600084815260200190815260200160002060020160009054906101000a900473ffffffffffffffffffffffffffffffffffffffff1673ffffffffffffffffffffffffffffffffffffffff1614611877576040517f08c379a000000000000000000000000000000000000000000000000000000000815260040161186e90613695565b60405180910390fd5b60095434146118bb576040517f08c379a00000000000000000000000000000000000000000000000000000000081526004016118b290613715565b60405180910390fd5b6000600b600084815260200190815260200160002060040160006101000a81548160ff02191690831515021790555080600b60008481526020019081526020016000206003018190555033600b600084815260200190815260200160002060010160006101000a81548173ffffffffffffffffffffffffffffffffffffffff021916908373ffffffffffffffffffffffffffffffffffffffff16021790555030600b600084815260200190815260200160002060020160006101000a81548173ffffffffffffffffffffffffffffffffffffffff021916908373ffffffffffffffffffffffffffffffffffffffff1602179055506119b96008612634565b6119c4333084611cdf565b5050565b6000600560008473ffffffffffffffffffffffffffffffffffffffff1673ffffffffffffffffffffffffffffffffffffffff16815260200190815260200160002060008373ffffffffffffffffffffffffffffffffffffffff1673ffffffffffffffffffffffffffffffffffffffff16815260200190815260200160002060009054906101000a900460ff16905092915050565b60007f01ffc9a7000000000000000000000000000000000000000000000000000000007bffffffffffffffffffffffffffffffffffffffffffffffffffffffff1916827bffffffffffffffffffffffffffffffffffffffffffffffffffffffff1916149050919050565b60008073ffffffffffffffffffffffffffffffffffffffff166002600084815260200190815260200160002060009054906101000a900473ffffffffffffffffffffffffffffffffffffffff1673ffffffffffffffffffffffffffffffffffffffff1614159050919050565b600033905090565b816004600083815260200190815260200160002060006101000a81548173ffffffffffffffffffffffffffffffffffffffff021916908373ffffffffffffffffffffffffffffffffffffffff160217905550808273ffffffffffffffffffffffffffffffffffffffff16611bad8361118d565b73ffffffffffffffffffffffffffffffffffffffff167f8c5be1e5ebec7d5bd14f71427d1e84f3dd0314c0f7b2291e5b200ac8c7c3b92560405160405180910390a45050565b600081600001549050919050565b6000611c0c82611ac6565b611c4b576040517f08c379a0000000000000000000000000000000000000000000000000000000008152600401611c4290613595565b60405180910390fd5b6000611c568361118d565b90508073ffffffffffffffffffffffffffffffffffffffff168473ffffffffffffffffffffffffffffffffffffffff161480611cc557508373ffffffffffffffffffffffffffffffffffffffff16611cad8461063d565b73ffffffffffffffffffffffffffffffffffffffff16145b80611cd65750611cd581856119c8565b5b91505092915050565b8273ffffffffffffffffffffffffffffffffffffffff16611cff8261118d565b73ffffffffffffffffffffffffffffffffffffffff1614611d55576040517f08c379a0000000000000000000000000000000000000000000000000000000008152600401611d4c90613515565b60405180910390fd5b600073ffffffffffffffffffffffffffffffffffffffff168273ffffffffffffffffffffffffffffffffffffffff161415611dc5576040517f08c379a0000000000000000000000000000000000000000000000000000000008152600401611dbc90613555565b60405180910390fd5b611dd0838383612690565b611ddb600082611b3a565b6001600360008573ffffffffffffffffffffffffffffffffffffffff1673ffffffffffffffffffffffffffffffffffffffff1681526020019081526020016000206000828254611e2b919061391a565b925050819055506001600360008473ffffffffffffffffffffffffffffffffffffffff1673ffffffffffffffffffffffffffffffffffffffff1681526020019081526020016000206000828254611e829190613893565b92505081905550816002600083815260200190815260200160002060006101000a81548173ffffffffffffffffffffffffffffffffffffffff021916908373ffffffffffffffffffffffffffffffffffffffff160217905550808273ffffffffffffffffffffffffffffffffffffffff168473ffffffffffffffffffffffffffffffffffffffff167fddf252ad1be2c89b69c2b068fc378daa952ba7f163c4a11628f55a4df523b3ef60405160405180910390a4611f41838383612695565b505050565b6001816000016000828254019250508190555050565b600073ffffffffffffffffffffffffffffffffffffffff168273ffffffffffffffffffffffffffffffffffffffff161415611fcc576040517f08c379a0000000000000000000000000000000000000000000000000000000008152600401611fc390613655565b60405180910390fd5b611fd581611ac6565b15612015576040517f08c379a000000000000000000000000000000000000000000000000000000000815260040161200c90613535565b60405180910390fd5b61202160008383612690565b6001600360008473ffffffffffffffffffffffffffffffffffffffff1673ffffffffffffffffffffffffffffffffffffffff16815260200190815260200160002060008282546120719190613893565b92505081905550816002600083815260200190815260200160002060006101000a81548173ffffffffffffffffffffffffffffffffffffffff021916908373ffffffffffffffffffffffffffffffffffffffff160217905550808273ffffffffffffffffffffffffffffffffffffffff16600073ffffffffffffffffffffffffffffffffffffffff167fddf252ad1be2c89b69c2b068fc378daa952ba7f163c4a11628f55a4df523b3ef60405160405180910390a461213260008383612695565b5050565b61213f82611ac6565b61217e576040517f08c379a000000000000000000000000000000000000000000000000000000000815260040161217590613615565b60405180910390fd5b806006600084815260200190815260200160002090805190602001906121a5929190612a5e565b505050565b600081116121ed576040517f08c379a00000000000000000000000000000000000000000000000000000000081526004016121e490613755565b60405180910390fd5b6009543414612231576040517f08c379a000000000000000000000000000000000000000000000000000000000815260040161222890613715565b60405180910390fd5b6040518060a001604052808381526020013373ffffffffffffffffffffffffffffffffffffffff1681526020013073ffffffffffffffffffffffffffffffffffffffff16815260200182815260200160001515815250600b60008481526020019081526020016000206000820151816000015560208201518160010160006101000a81548173ffffffffffffffffffffffffffffffffffffffff021916908373ffffffffffffffffffffffffffffffffffffffff16021790555060408201518160020160006101000a81548173ffffffffffffffffffffffffffffffffffffffff021916908373ffffffffffffffffffffffffffffffffffffffff1602179055506060820151816003015560808201518160040160006101000a81548160ff02191690831515021790555090505061236a333084611cdf565b817fb640004f1d14576d0c209e240cad0410e0d8c0c33a09375861fbadae2588a98d33308460006040516123a194939291906133e5565b60405180910390a25050565b8173ffffffffffffffffffffffffffffffffffffffff168373ffffffffffffffffffffffffffffffffffffffff16141561241c576040517f08c379a000000000000000000000000000000000000000000000000000000000815260040161241390613575565b60405180910390fd5b80600560008573ffffffffffffffffffffffffffffffffffffffff1673ffffffffffffffffffffffffffffffffffffffff16815260200190815260200160002060008473ffffffffffffffffffffffffffffffffffffffff1673ffffffffffffffffffffffffffffffffffffffff16815260200190815260200160002060006101000a81548160ff0219169083151502179055508173ffffffffffffffffffffffffffffffffffffffff168373ffffffffffffffffffffffffffffffffffffffff167f17307eab39ab6107e8899845ad3d59bd9653f200f220920489ca2b5937696c318360405161250d9190613498565b60405180910390a3505050565b612525848484611cdf565b6125318484848461269a565b612570576040517f08c379a0000000000000000000000000000000000000000000000000000000008152600401612567906134f5565b60405180910390fd5b50505050565b606060405180602001604052806000815250905090565b606061259882611ac6565b6125d7576040517f08c379a00000000000000000000000000000000000000000000000000000000081526004016125ce906136d5565b60405180910390fd5b60006125e1612576565b90506000815111612601576040518060200160405280600081525061262c565b8061260b84612831565b60405160200161261c9291906133a6565b6040516020818303038152906040525b915050919050565b60008160000154905060008111612680576040517f08c379a0000000000000000000000000000000000000000000000000000000008152600401612677906134d5565b60405180910390fd5b6001810382600001819055505050565b505050565b505050565b60006126bb8473ffffffffffffffffffffffffffffffffffffffff166129de565b15612824578373ffffffffffffffffffffffffffffffffffffffff1663150b7a026126e4611b32565b8786866040518563ffffffff1660e01b8152600401612706949392919061342a565b602060405180830381600087803b15801561272057600080fd5b505af192505050801561275157506040513d601f19601f8201168201806040525081019061274e9190612e0a565b60015b6127d4573d8060008114612781576040519150601f19603f3d011682016040523d82523d6000602084013e612786565b606091505b506000815114156127cc576040517f08c379a00000000000000000000000000000000000000000000000000000000081526004016127c3906134f5565b60405180910390fd5b805181602001fd5b63150b7a0260e01b7bffffffffffffffffffffffffffffffffffffffffffffffffffffffff1916817bffffffffffffffffffffffffffffffffffffffffffffffffffffffff191614915050612829565b600190505b949350505050565b60606000821415612879576040518060400160405280600181526020017f300000000000000000000000000000000000000000000000000000000000000081525090506129d9565b600082905060005b600082146128ab57808061289490613a79565b915050600a826128a491906138e9565b9150612881565b60008167ffffffffffffffff8111156128ed577f4e487b7100000000000000000000000000000000000000000000000000000000600052604160045260246000fd5b6040519080825280601f01601f19166020018201604052801561291f5781602001600182028036833780820191505090505b5090505b600085146129d257600182612938919061391a565b9150600a856129479190613ac2565b60306129539190613893565b60f81b81838151811061298f577f4e487b7100000000000000000000000000000000000000000000000000000000600052603260045260246000fd5b60200101907effffffffffffffffffffffffffffffffffffffffffffffffffffffffffffff1916908160001a905350600a856129cb91906138e9565b9450612923565b8093505050505b919050565b6000808273ffffffffffffffffffffffffffffffffffffffff163b119050919050565b6040518060a0016040528060008152602001600073ffffffffffffffffffffffffffffffffffffffff168152602001600073ffffffffffffffffffffffffffffffffffffffff168152602001600081526020016000151581525090565b828054612a6a90613a16565b90600052602060002090601f016020900481019282612a8c5760008555612ad3565b82601f10612aa557805160ff1916838001178555612ad3565b82800160010185558215612ad3579182015b82811115612ad2578251825591602001919060010190612ab7565b5b509050612ae09190612ae4565b5090565b5b80821115612afd576000816000905550600101612ae5565b5090565b6000612b14612b0f846137b5565b613790565b905082815260208101848484011115612b2c57600080fd5b612b378482856139d4565b509392505050565b6000612b52612b4d846137e6565b613790565b905082815260208101848484011115612b6a57600080fd5b612b758482856139d4565b509392505050565b600081359050612b8c8161417d565b92915050565b600081359050612ba181614194565b92915050565b600081359050612bb6816141ab565b92915050565b600081519050612bcb816141ab565b92915050565b600082601f830112612be257600080fd5b8135612bf2848260208601612b01565b91505092915050565b600082601f830112612c0c57600080fd5b8135612c1c848260208601612b3f565b91505092915050565b600081359050612c34816141c2565b92915050565b600060208284031215612c4c57600080fd5b6000612c5a84828501612b7d565b91505092915050565b60008060408385031215612c7657600080fd5b6000612c8485828601612b7d565b9250506020612c9585828601612b7d565b9150509250929050565b600080600060608486031215612cb457600080fd5b6000612cc286828701612b7d565b9350506020612cd386828701612b7d565b9250506040612ce486828701612c25565b9150509250925092565b60008060008060808587031215612d0457600080fd5b6000612d1287828801612b7d565b9450506020612d2387828801612b7d565b9350506040612d3487828801612c25565b925050606085013567ffffffffffffffff811115612d5157600080fd5b612d5d87828801612bd1565b91505092959194509250565b60008060408385031215612d7c57600080fd5b6000612d8a85828601612b7d565b9250506020612d9b85828601612b92565b9150509250929050565b60008060408385031215612db857600080fd5b6000612dc685828601612b7d565b9250506020612dd785828601612c25565b9150509250929050565b600060208284031215612df357600080fd5b6000612e0184828501612ba7565b91505092915050565b600060208284031215612e1c57600080fd5b6000612e2a84828501612bbc565b91505092915050565b60008060408385031215612e4657600080fd5b600083013567ffffffffffffffff811115612e6057600080fd5b612e6c85828601612bfb565b9250506020612e7d85828601612c25565b9150509250929050565b600060208284031215612e9957600080fd5b6000612ea784828501612c25565b91505092915050565b60008060408385031215612ec357600080fd5b6000612ed185828601612c25565b9250506020612ee285828601612c25565b9150509250929050565b6000612ef88383613320565b60a08301905092915050565b612f0d81613960565b82525050565b612f1c8161394e565b82525050565b6000612f2d82613827565b612f378185613855565b9350612f4283613817565b8060005b83811015612f73578151612f5a8882612eec565b9750612f6583613848565b925050600181019050612f46565b5085935050505092915050565b612f8981613972565b82525050565b612f9881613972565b82525050565b6000612fa982613832565b612fb38185613866565b9350612fc38185602086016139e3565b612fcc81613baf565b840191505092915050565b6000612fe28261383d565b612fec8185613877565b9350612ffc8185602086016139e3565b61300581613baf565b840191505092915050565b600061301b8261383d565b6130258185613888565b93506130358185602086016139e3565b80840191505092915050565b600061304e601b83613877565b915061305982613bc0565b602082019050919050565b6000613071603283613877565b915061307c82613be9565b604082019050919050565b6000613094602583613877565b915061309f82613c38565b604082019050919050565b60006130b7601c83613877565b91506130c282613c87565b602082019050919050565b60006130da602483613877565b91506130e582613cb0565b604082019050919050565b60006130fd601983613877565b915061310882613cff565b602082019050919050565b6000613120602c83613877565b915061312b82613d28565b604082019050919050565b6000613143603883613877565b915061314e82613d77565b604082019050919050565b6000613166602a83613877565b915061317182613dc6565b604082019050919050565b6000613189602983613877565b915061319482613e15565b604082019050919050565b60006131ac602e83613877565b91506131b782613e64565b604082019050919050565b60006131cf604083613877565b91506131da82613eb3565b604082019050919050565b60006131f2602083613877565b91506131fd82613f02565b602082019050919050565b6000613215603183613877565b915061322082613f2b565b604082019050919050565b6000613238602a83613877565b915061324382613f7a565b604082019050919050565b600061325b602c83613877565b915061326682613fc9565b604082019050919050565b600061327e602f83613877565b915061328982614018565b604082019050919050565b60006132a1602183613877565b91506132ac82614067565b604082019050919050565b60006132c4602483613877565b91506132cf826140b6565b604082019050919050565b60006132e7603183613877565b91506132f282614105565b604082019050919050565b600061330a601c83613877565b915061331582614154565b602082019050919050565b60a0820160008201516133366000850182613388565b5060208201516133496020850182612f04565b50604082015161335c6040850182612f04565b50606082015161336f6060850182613388565b5060808201516133826080850182612f80565b50505050565b613391816139ca565b82525050565b6133a0816139ca565b82525050565b60006133b28285613010565b91506133be8284613010565b91508190509392505050565b60006020820190506133df6000830184612f13565b92915050565b60006080820190506133fa6000830187612f13565b6134076020830186612f13565b6134146040830185613397565b6134216060830184612f8f565b95945050505050565b600060808201905061343f6000830187612f13565b61344c6020830186612f13565b6134596040830185613397565b818103606083015261346b8184612f9e565b905095945050505050565b600060208201905081810360008301526134908184612f22565b905092915050565b60006020820190506134ad6000830184612f8f565b92915050565b600060208201905081810360008301526134cd8184612fd7565b905092915050565b600060208201905081810360008301526134ee81613041565b9050919050565b6000602082019050818103600083015261350e81613064565b9050919050565b6000602082019050818103600083015261352e81613087565b9050919050565b6000602082019050818103600083015261354e816130aa565b9050919050565b6000602082019050818103600083015261356e816130cd565b9050919050565b6000602082019050818103600083015261358e816130f0565b9050919050565b600060208201905081810360008301526135ae81613113565b9050919050565b600060208201905081810360008301526135ce81613136565b9050919050565b600060208201905081810360008301526135ee81613159565b9050919050565b6000602082019050818103600083015261360e8161317c565b9050919050565b6000602082019050818103600083015261362e8161319f565b9050919050565b6000602082019050818103600083015261364e816131c2565b9050919050565b6000602082019050818103600083015261366e816131e5565b9050919050565b6000602082019050818103600083015261368e81613208565b9050919050565b600060208201905081810360008301526136ae8161322b565b9050919050565b600060208201905081810360008301526136ce8161324e565b9050919050565b600060208201905081810360008301526136ee81613271565b9050919050565b6000602082019050818103600083015261370e81613294565b9050919050565b6000602082019050818103600083015261372e816132b7565b9050919050565b6000602082019050818103600083015261374e816132da565b9050919050565b6000602082019050818103600083015261376e816132fd565b9050919050565b600060208201905061378a6000830184613397565b92915050565b600061379a6137ab565b90506137a68282613a48565b919050565b6000604051905090565b600067ffffffffffffffff8211156137d0576137cf613b80565b5b6137d982613baf565b9050602081019050919050565b600067ffffffffffffffff82111561380157613800613b80565b5b61380a82613baf565b9050602081019050919050565b6000819050602082019050919050565b600081519050919050565b600081519050919050565b600081519050919050565b6000602082019050919050565b600082825260208201905092915050565b600082825260208201905092915050565b600082825260208201905092915050565b600081905092915050565b600061389e826139ca565b91506138a9836139ca565b9250827fffffffffffffffffffffffffffffffffffffffffffffffffffffffffffffffff038211156138de576138dd613af3565b5b828201905092915050565b60006138f4826139ca565b91506138ff836139ca565b92508261390f5761390e613b22565b5b828204905092915050565b6000613925826139ca565b9150613930836139ca565b92508282101561394357613942613af3565b5b828203905092915050565b6000613959826139aa565b9050919050565b600061396b826139aa565b9050919050565b60008115159050919050565b60007fffffffff0000000000000000000000000000000000000000000000000000000082169050919050565b600073ffffffffffffffffffffffffffffffffffffffff82169050919050565b6000819050919050565b82818337600083830152505050565b60005b83811015613a015780820151818401526020810190506139e6565b83811115613a10576000848401525b50505050565b60006002820490506001821680613a2e57607f821691505b60208210811415613a4257613a41613b51565b5b50919050565b613a5182613baf565b810181811067ffffffffffffffff82111715613a7057613a6f613b80565b5b80604052505050565b6000613a84826139ca565b91507fffffffffffffffffffffffffffffffffffffffffffffffffffffffffffffffff821415613ab757613ab6613af3565b5b600182019050919050565b6000613acd826139ca565b9150613ad8836139ca565b925082613ae857613ae7613b22565b5b828206905092915050565b7f4e487b7100000000000000000000000000000000000000000000000000000000600052601160045260246000fd5b7f4e487b7100000000000000000000000000000000000000000000000000000000600052601260045260246000fd5b7f4e487b7100000000000000000000000000000000000000000000000000000000600052602260045260246000fd5b7f4e487b7100000000000000000000000000000000000000000000000000000000600052604160045260246000fd5b6000601f19601f8301169050919050565b7f436f756e7465723a2064656372656d656e74206f766572666c6f770000000000600082015250565b7f4552433732313a207472616e7366657220746f206e6f6e20455243373231526560008201527f63656976657220696d706c656d656e7465720000000000000000000000000000602082015250565b7f4552433732313a207472616e736665722066726f6d20696e636f72726563742060008201527f6f776e6572000000000000000000000000000000000000000000000000000000602082015250565b7f4552433732313a20746f6b656e20616c7265616479206d696e74656400000000600082015250565b7f4552433732313a207472616e7366657220746f20746865207a65726f2061646460008201527f7265737300000000000000000000000000000000000000000000000000000000602082015250565b7f4552433732313a20617070726f766520746f2063616c6c657200000000000000600082015250565b7f4552433732313a206f70657261746f7220717565727920666f72206e6f6e657860008201527f697374656e7420746f6b656e0000000000000000000000000000000000000000602082015250565b7f4552433732313a20617070726f76652063616c6c6572206973206e6f74206f7760008201527f6e6572206e6f7220617070726f76656420666f7220616c6c0000000000000000602082015250565b7f4552433732313a2062616c616e636520717565727920666f7220746865207a6560008201527f726f206164647265737300000000000000000000000000000000000000000000602082015250565b7f4552433732313a206f776e657220717565727920666f72206e6f6e657869737460008201527f656e7420746f6b656e0000000000000000000000000000000000000000000000602082015250565b7f45524337323155524953746f726167653a2055524920736574206f66206e6f6e60008201527f6578697374656e7420746f6b656e000000000000000000000000000000000000602082015250565b7f506c65617365207375626d6974207468652061736b696e67207072696365206960008201527f6e206f7264657220746f20636f6d706c65746520746865207075726368617365602082015250565b7f4552433732313a206d696e7420746f20746865207a65726f2061646472657373600082015250565b7f45524337323155524953746f726167653a2055524920717565727920666f722060008201527f6e6f6e6578697374656e7420746f6b656e000000000000000000000000000000602082015250565b7f4f6e6c79206974656d206f776e65722063616e20706572666f726d207468697360008201527f206f7065726174696f6e00000000000000000000000000000000000000000000602082015250565b7f4552433732313a20617070726f76656420717565727920666f72206e6f6e657860008201527f697374656e7420746f6b656e0000000000000000000000000000000000000000602082015250565b7f4552433732314d657461646174613a2055524920717565727920666f72206e6f60008201527f6e6578697374656e7420746f6b656e0000000000000000000000000000000000602082015250565b7f4552433732313a20617070726f76616c20746f2063757272656e74206f776e6560008201527f7200000000000000000000000000000000000000000000000000000000000000602082015250565b7f5072696365206d75737420626520657175616c20746f206c697374696e67207060008201527f7269636500000000000000000000000000000000000000000000000000000000602082015250565b7f4552433732313a207472616e736665722063616c6c6572206973206e6f74206f60008201527f776e6572206e6f7220617070726f766564000000000000000000000000000000602082015250565b7f5072696365206d757374206265206174206c6561737420312077656900000000600082015250565b6141868161394e565b811461419157600080fd5b50565b61419d81613972565b81146141a857600080fd5b50565b6141b48161397e565b81146141bf57600080fd5b50565b6141cb816139ca565b81146141d657600080fd5b5056fea2646970667358221220dc494b21fe2350f827b86070d3dd34ec0a87f8a7e7722b9f4acaed776f98985864736f6c63430008040033",
  "immutableReferences": {},
  "source": "// SPDX-License-Identifier: MIT\r\npragma solidity ^0.8.4;\r\n\r\nimport \"@openzeppelin/contracts/utils/Counters.sol\";\r\nimport \"@openzeppelin/contracts/token/ERC721/extensions/ERC721URIStorage.sol\";\r\n\r\ncontract UNIQ_Application is ERC721URIStorage {\r\n    using Counters for Counters.Counter;\r\n    Counters.Counter private _tokenIds;\r\n    Counters.Counter private _itemsSold;\r\n\r\n    uint256 listingPrice = 0.025 ether;\r\n    address payable owner;\r\n\r\n    mapping(uint256 => MarketItem) private idToMarketItem;\r\n\r\n    struct MarketItem {\r\n        uint256 tokenId;\r\n        address payable seller;\r\n        address payable owner;\r\n        uint256 price;\r\n        bool sold;\r\n    }\r\n\r\n    event MarketItemCreated (\r\n        uint256 indexed tokenId,\r\n        address seller,\r\n        address owner,\r\n        uint256 price,\r\n        bool sold\r\n    );\r\n\r\n    constructor() ERC721(\"Metaverse Tokens\", \"METT\") {\r\n        owner = payable(msg.sender);\r\n    }\r\n\r\n    /* Returns the listing price of the contract */\r\n    function getListingPrice() public view returns (uint256) {\r\n        return listingPrice;\r\n    }\r\n\r\n    /* Mints a token and lists it in the marketplace */\r\n    function createToken(string memory tokenURI, uint256 price) public payable returns (uint) {\r\n        _tokenIds.increment();\r\n        uint256 newTokenId = _tokenIds.current();\r\n        _mint(msg.sender, newTokenId);\r\n        _setTokenURI(newTokenId, tokenURI);\r\n        createMarketItem(newTokenId, price);\r\n        return newTokenId;\r\n    }\r\n\r\n    function createMarketItem(\r\n        uint256 tokenId,\r\n        uint256 price\r\n    ) private {\r\n        require(price > 0, \"Price must be at least 1 wei\");\r\n        require(msg.value == listingPrice, \"Price must be equal to listing price\");\r\n        idToMarketItem[tokenId] =  MarketItem(\r\n            tokenId,\r\n            payable(msg.sender),\r\n            payable(address(this)),\r\n            price,\r\n            false\r\n        );\r\n\r\n        _transfer(msg.sender, address(this), tokenId);\r\n        emit MarketItemCreated(\r\n            tokenId,\r\n            msg.sender,\r\n            address(this),\r\n            price,\r\n            false\r\n        );\r\n    }\r\n\r\n    /* allows someone to resell a token they have purchased */\r\n    function resellToken(uint256 tokenId, uint256 price) public payable {\r\n        require(idToMarketItem[tokenId].owner == msg.sender, \"Only item owner can perform this operation\");\r\n        require(msg.value == listingPrice, \"Price must be equal to listing price\");\r\n        idToMarketItem[tokenId].sold = false;\r\n        idToMarketItem[tokenId].price = price;\r\n        idToMarketItem[tokenId].seller = payable(msg.sender);\r\n        idToMarketItem[tokenId].owner = payable(address(this));\r\n        _itemsSold.decrement();\r\n\r\n        _transfer(msg.sender, address(this), tokenId);\r\n    }\r\n\r\n    /* Creates the sale of a marketplace item */\r\n    /* Transfers ownership of the item, as well as funds between parties */\r\n    function createMarketSale(\r\n        uint256 tokenId\r\n    ) public payable {\r\n        uint price = idToMarketItem[tokenId].price;\r\n        address seller = idToMarketItem[tokenId].seller;\r\n        require(msg.value == price, \"Please submit the asking price in order to complete the purchase\");\r\n        idToMarketItem[tokenId].owner = payable(msg.sender);\r\n        idToMarketItem[tokenId].sold = true;\r\n        idToMarketItem[tokenId].seller = payable(address(0));\r\n        _itemsSold.increment();\r\n        _transfer(address(this), msg.sender, tokenId);\r\n        payable(owner).transfer(listingPrice);\r\n        payable(seller).transfer(msg.value);\r\n    }\r\n\r\n    /* Returns all unsold market items */\r\n    function fetchMarketItems() public view returns (MarketItem[] memory) {\r\n        uint itemCount = _tokenIds.current();\r\n        uint unsoldItemCount = _tokenIds.current() - _itemsSold.current();\r\n        uint currentIndex = 0;\r\n\r\n        MarketItem[] memory items = new MarketItem[](unsoldItemCount);\r\n        for (uint i = 0; i < itemCount; i++) {\r\n            if (idToMarketItem[i + 1].owner == address(this)) {\r\n                uint currentId = i + 1;\r\n                MarketItem storage currentItem = idToMarketItem[currentId];\r\n                items[currentIndex] = currentItem;\r\n                currentIndex += 1;\r\n            }\r\n        }\r\n        return items;\r\n    }\r\n\r\n    /* Returns only items that a user has purchased */\r\n    function fetchMyNFTs() public view returns (MarketItem[] memory) {\r\n        uint totalItemCount = _tokenIds.current();\r\n        uint itemCount = 0;\r\n        uint currentIndex = 0;\r\n\r\n        for (uint i = 0; i < totalItemCount; i++) {\r\n            if (idToMarketItem[i + 1].owner == msg.sender) {\r\n                itemCount += 1;\r\n            }\r\n        }\r\n\r\n        MarketItem[] memory items = new MarketItem[](itemCount);\r\n        for (uint i = 0; i < totalItemCount; i++) {\r\n            if (idToMarketItem[i + 1].owner == msg.sender) {\r\n                uint currentId = i + 1;\r\n                MarketItem storage currentItem = idToMarketItem[currentId];\r\n                items[currentIndex] = currentItem;\r\n                currentIndex += 1;\r\n            }\r\n        }\r\n        return items;\r\n    }\r\n\r\n    /* Returns only items a user has listed */\r\n    function fetchItemsListed() public view returns (MarketItem[] memory) {\r\n        uint totalItemCount = _tokenIds.current();\r\n        uint itemCount = 0;\r\n        uint currentIndex = 0;\r\n\r\n        for (uint i = 0; i < totalItemCount; i++) {\r\n            if (idToMarketItem[i + 1].seller == msg.sender) {\r\n                itemCount += 1;\r\n            }\r\n        }\r\n\r\n        MarketItem[] memory items = new MarketItem[](itemCount);\r\n        for (uint i = 0; i < totalItemCount; i++) {\r\n            if (idToMarketItem[i + 1].seller == msg.sender) {\r\n                uint currentId = i + 1;\r\n                MarketItem storage currentItem = idToMarketItem[currentId];\r\n                items[currentIndex] = currentItem;\r\n                currentIndex += 1;\r\n            }\r\n        }\r\n        return items;\r\n    }\r\n}",
  "sourcePath": "C:\\Data\\Git\\react-bitcrafty\\bitcrafty-contract\\contracts\\UNIQ_Application.sol",
  "compiler": {
    "name": "solc",
    "version": "0.8.4+commit.c7e474f2.Emscripten.clang"
  },
  "schemaVersion": "3.4.6",
  "updatedAt": "2022-04-08T13:31:31.833Z",
  "networkType": "ethereum",
  "devdoc": {
    "kind": "dev",
    "methods": {
      "approve(address,uint256)": {
        "details": "See {IERC721-approve}."
      },
      "balanceOf(address)": {
        "details": "See {IERC721-balanceOf}."
      },
      "getApproved(uint256)": {
        "details": "See {IERC721-getApproved}."
      },
      "isApprovedForAll(address,address)": {
        "details": "See {IERC721-isApprovedForAll}."
      },
      "name()": {
        "details": "See {IERC721Metadata-name}."
      },
      "ownerOf(uint256)": {
        "details": "See {IERC721-ownerOf}."
      },
      "safeTransferFrom(address,address,uint256)": {
        "details": "See {IERC721-safeTransferFrom}."
      },
      "safeTransferFrom(address,address,uint256,bytes)": {
        "details": "See {IERC721-safeTransferFrom}."
      },
      "setApprovalForAll(address,bool)": {
        "details": "See {IERC721-setApprovalForAll}."
      },
      "supportsInterface(bytes4)": {
        "details": "See {IERC165-supportsInterface}."
      },
      "symbol()": {
        "details": "See {IERC721Metadata-symbol}."
      },
      "tokenURI(uint256)": {
        "details": "See {IERC721Metadata-tokenURI}."
      },
      "transferFrom(address,address,uint256)": {
        "details": "See {IERC721-transferFrom}."
      }
    },
    "version": 1
  },
  "userdoc": {
    "kind": "user",
    "methods": {},
    "version": 1
  }
}